{
  "contractName": "AvaxFoxesGame",
  "abi": [
    {
      "inputs": [],
      "stateMutability": "nonpayable",
      "type": "constructor"
    },
    {
      "anonymous": false,
      "inputs": [
        {
          "indexed": true,
          "internalType": "address",
          "name": "previousOwner",
          "type": "address"
        },
        {
          "indexed": true,
          "internalType": "address",
          "name": "newOwner",
          "type": "address"
        }
      ],
      "name": "OwnershipTransferred",
      "type": "event"
    },
    {
      "inputs": [
        {
          "internalType": "uint256",
          "name": "",
          "type": "uint256"
        }
      ],
      "name": "Attack",
      "outputs": [
        {
          "internalType": "int256",
          "name": "",
          "type": "int256"
        }
      ],
      "stateMutability": "view",
      "type": "function"
    },
    {
      "inputs": [
        {
          "internalType": "uint256",
          "name": "",
          "type": "uint256"
        }
      ],
      "name": "Critical",
      "outputs": [
        {
          "internalType": "int256",
          "name": "",
          "type": "int256"
        }
      ],
      "stateMutability": "view",
      "type": "function"
    },
    {
      "inputs": [
        {
          "internalType": "uint256",
          "name": "",
          "type": "uint256"
        }
      ],
      "name": "Evasion",
      "outputs": [
        {
          "internalType": "int256",
          "name": "",
          "type": "int256"
        }
      ],
      "stateMutability": "view",
      "type": "function"
    },
    {
      "inputs": [
        {
          "internalType": "uint256",
          "name": "",
          "type": "uint256"
        }
      ],
      "name": "Health",
      "outputs": [
        {
          "internalType": "int256",
          "name": "",
          "type": "int256"
        }
      ],
      "stateMutability": "view",
      "type": "function"
    },
    {
      "inputs": [
        {
          "internalType": "uint256",
          "name": "",
          "type": "uint256"
        }
      ],
      "name": "Hitrate",
      "outputs": [
        {
          "internalType": "int256",
          "name": "",
          "type": "int256"
        }
      ],
      "stateMutability": "view",
      "type": "function"
    },
    {
      "inputs": [
        {
          "internalType": "uint256",
          "name": "",
          "type": "uint256"
        }
      ],
      "name": "bestFoxes",
      "outputs": [
        {
          "internalType": "uint256",
          "name": "",
          "type": "uint256"
        }
      ],
      "stateMutability": "view",
      "type": "function"
    },
    {
      "inputs": [],
      "name": "joinPVPTokenPrice",
      "outputs": [
        {
          "internalType": "uint256",
          "name": "",
          "type": "uint256"
        }
      ],
      "stateMutability": "view",
      "type": "function"
    },
    {
      "inputs": [],
      "name": "joinPVPprice",
      "outputs": [
        {
          "internalType": "uint256",
          "name": "",
          "type": "uint256"
        }
      ],
      "stateMutability": "view",
      "type": "function"
    },
    {
      "inputs": [
        {
          "internalType": "uint256",
          "name": "",
          "type": "uint256"
        }
      ],
      "name": "lastBattle",
      "outputs": [
        {
          "internalType": "uint256",
          "name": "",
          "type": "uint256"
        }
      ],
      "stateMutability": "view",
      "type": "function"
    },
    {
      "inputs": [
        {
          "internalType": "uint256",
          "name": "",
          "type": "uint256"
        }
      ],
      "name": "lastteam1",
      "outputs": [
        {
          "internalType": "address",
          "name": "",
          "type": "address"
        }
      ],
      "stateMutability": "view",
      "type": "function"
    },
    {
      "inputs": [
        {
          "internalType": "uint256",
          "name": "",
          "type": "uint256"
        }
      ],
      "name": "lastteam1ids",
      "outputs": [
        {
          "internalType": "uint256",
          "name": "",
          "type": "uint256"
        }
      ],
      "stateMutability": "view",
      "type": "function"
    },
    {
      "inputs": [
        {
          "internalType": "uint256",
          "name": "",
          "type": "uint256"
        }
      ],
      "name": "lastteam2",
      "outputs": [
        {
          "internalType": "address",
          "name": "",
          "type": "address"
        }
      ],
      "stateMutability": "view",
      "type": "function"
    },
    {
      "inputs": [
        {
          "internalType": "uint256",
          "name": "",
          "type": "uint256"
        }
      ],
      "name": "lastteam2ids",
      "outputs": [
        {
          "internalType": "uint256",
          "name": "",
          "type": "uint256"
        }
      ],
      "stateMutability": "view",
      "type": "function"
    },
    {
      "inputs": [],
      "name": "lastwinner",
      "outputs": [
        {
          "internalType": "bool",
          "name": "",
          "type": "bool"
        }
      ],
      "stateMutability": "view",
      "type": "function"
    },
    {
      "inputs": [],
      "name": "owner",
      "outputs": [
        {
          "internalType": "address",
          "name": "",
          "type": "address"
        }
      ],
      "stateMutability": "view",
      "type": "function"
    },
    {
      "inputs": [],
      "name": "renounceOwnership",
      "outputs": [],
      "stateMutability": "nonpayable",
      "type": "function"
    },
    {
      "inputs": [
        {
          "internalType": "uint256",
          "name": "",
          "type": "uint256"
        }
      ],
      "name": "team1",
      "outputs": [
        {
          "internalType": "address",
          "name": "",
          "type": "address"
        }
      ],
      "stateMutability": "view",
      "type": "function"
    },
    {
      "inputs": [
        {
          "internalType": "uint256",
          "name": "",
          "type": "uint256"
        }
      ],
      "name": "team1ids",
      "outputs": [
        {
          "internalType": "uint256",
          "name": "",
          "type": "uint256"
        }
      ],
      "stateMutability": "view",
      "type": "function"
    },
    {
      "inputs": [
        {
          "internalType": "uint256",
          "name": "",
          "type": "uint256"
        }
      ],
      "name": "team2",
      "outputs": [
        {
          "internalType": "address",
          "name": "",
          "type": "address"
        }
      ],
      "stateMutability": "view",
      "type": "function"
    },
    {
      "inputs": [
        {
          "internalType": "uint256",
          "name": "",
          "type": "uint256"
        }
      ],
      "name": "team2ids",
      "outputs": [
        {
          "internalType": "uint256",
          "name": "",
          "type": "uint256"
        }
      ],
      "stateMutability": "view",
      "type": "function"
    },
    {
      "inputs": [],
      "name": "teamSize",
      "outputs": [
        {
          "internalType": "uint256",
          "name": "",
          "type": "uint256"
        }
      ],
      "stateMutability": "view",
      "type": "function"
    },
    {
      "inputs": [],
      "name": "temp",
      "outputs": [
        {
          "internalType": "uint256",
          "name": "",
          "type": "uint256"
        }
      ],
      "stateMutability": "view",
      "type": "function"
    },
    {
      "inputs": [
        {
          "internalType": "address",
          "name": "newOwner",
          "type": "address"
        }
      ],
      "name": "transferOwnership",
      "outputs": [],
      "stateMutability": "nonpayable",
      "type": "function"
    },
    {
      "inputs": [
        {
          "internalType": "uint256",
          "name": "size",
          "type": "uint256"
        }
      ],
      "name": "setTeamSize",
      "outputs": [],
      "stateMutability": "nonpayable",
      "type": "function"
    },
    {
      "inputs": [
        {
          "internalType": "uint256",
          "name": "price",
          "type": "uint256"
        }
      ],
      "name": "setjoinPVPprice",
      "outputs": [],
      "stateMutability": "nonpayable",
      "type": "function"
    },
    {
      "inputs": [
        {
          "internalType": "uint256",
          "name": "price",
          "type": "uint256"
        }
      ],
      "name": "setjoinPVPTokenPrice",
      "outputs": [],
      "stateMutability": "nonpayable",
      "type": "function"
    },
    {
      "inputs": [
        {
          "internalType": "uint256",
          "name": "id",
          "type": "uint256"
        }
      ],
      "name": "getLevel",
      "outputs": [
        {
          "internalType": "int256",
          "name": "",
          "type": "int256"
        }
      ],
      "stateMutability": "view",
      "type": "function"
    },
    {
      "inputs": [
        {
          "internalType": "uint256",
          "name": "id",
          "type": "uint256"
        },
        {
          "internalType": "uint256",
          "name": "attack",
          "type": "uint256"
        },
        {
          "internalType": "uint256",
          "name": "health",
          "type": "uint256"
        },
        {
          "internalType": "uint256",
          "name": "critical",
          "type": "uint256"
        },
        {
          "internalType": "uint256",
          "name": "hitrate",
          "type": "uint256"
        },
        {
          "internalType": "uint256",
          "name": "evasion",
          "type": "uint256"
        }
      ],
      "name": "increaseStats",
      "outputs": [],
      "stateMutability": "nonpayable",
      "type": "function"
    },
    {
      "inputs": [
        {
          "internalType": "address",
          "name": "_user",
          "type": "address"
        },
        {
          "internalType": "uint256",
          "name": "id",
          "type": "uint256"
        }
      ],
      "name": "canJoinPVP",
      "outputs": [
        {
          "internalType": "bool",
          "name": "",
          "type": "bool"
        }
      ],
      "stateMutability": "view",
      "type": "function"
    },
    {
      "inputs": [
        {
          "internalType": "uint256",
          "name": "id",
          "type": "uint256"
        }
      ],
      "name": "canJoinHunt",
      "outputs": [
        {
          "internalType": "bool",
          "name": "",
          "type": "bool"
        }
      ],
      "stateMutability": "view",
      "type": "function"
    },
    {
      "inputs": [
        {
          "internalType": "uint256",
          "name": "id",
          "type": "uint256"
        }
      ],
      "name": "energy",
      "outputs": [
        {
          "internalType": "uint256",
          "name": "",
          "type": "uint256"
        }
      ],
      "stateMutability": "view",
      "type": "function"
    },
    {
      "inputs": [
        {
          "internalType": "uint256",
          "name": "id",
          "type": "uint256"
        }
      ],
      "name": "Hunt",
      "outputs": [],
      "stateMutability": "nonpayable",
      "type": "function"
    },
    {
      "inputs": [
        {
          "internalType": "address",
          "name": "user",
          "type": "address"
        }
      ],
      "name": "HuntwithAll",
      "outputs": [],
      "stateMutability": "nonpayable",
      "type": "function"
    },
    {
      "inputs": [
        {
          "internalType": "uint256",
          "name": "id",
          "type": "uint256"
        }
      ],
      "name": "joinPVP",
      "outputs": [],
      "stateMutability": "payable",
      "type": "function"
    },
    {
      "inputs": [
        {
          "internalType": "address",
          "name": "_user",
          "type": "address"
        }
      ],
      "name": "getTotalClaimable",
      "outputs": [
        {
          "internalType": "uint256",
          "name": "",
          "type": "uint256"
        }
      ],
      "stateMutability": "view",
      "type": "function"
    },
    {
      "inputs": [
        {
          "internalType": "address",
          "name": "_user",
          "type": "address"
        }
      ],
      "name": "balanceOf",
      "outputs": [
        {
          "internalType": "uint256",
          "name": "",
          "type": "uint256"
        }
      ],
      "stateMutability": "view",
      "type": "function"
    },
    {
      "inputs": [
        {
          "internalType": "address",
          "name": "_from",
          "type": "address"
        }
      ],
      "name": "getReward",
      "outputs": [],
      "stateMutability": "nonpayable",
      "type": "function"
    },
    {
      "inputs": [],
      "name": "withdraw",
      "outputs": [],
      "stateMutability": "payable",
      "type": "function"
    }
  ],
  "bytecode": "0x6706f05b59d3b20000600155670de0b6b3a76400006002908155600a819055608081815260e060405290816020016020820280368337505081516200004c92600b92506020019062000338565b50600a546001600160401b038111156200006a576200006a6200043b565b60405190808252806020026020018201604052801562000094578160200160208202803683370190505b508051620000ab91600c9160209091019062000338565b50600a546001600160401b03811115620000c957620000c96200043b565b604051908082528060200260200182016040528015620000f3578160200160208202803683370190505b5080516200010a91600d91602090910190620003a2565b50600a546001600160401b038111156200012857620001286200043b565b60405190808252806020026020018201604052801562000152578160200160208202803683370190505b5080516200016991600e91602090910190620003a2565b50600a546001600160401b038111156200018757620001876200043b565b604051908082528060200260200182016040528015620001b1578160200160208202803683370190505b508051620001c891600f9160209091019062000338565b50600a546001600160401b03811115620001e657620001e66200043b565b60405190808252806020026020018201604052801562000210578160200160208202803683370190505b508051620002279160109160209091019062000338565b50604080518082019091526126e481526126e560208201526200024f906011906002620003e0565b50604080518082019091526126e681526126e7602082015262000277906012906002620003e0565b506013805460ff1916905560408051600380825260808201909252906020820160608036833750508151620002b4926014925060200190620003a2565b506064601555601680546001600160a01b0319908116734ae16c4a15722554a51dd9fc5f8d0bd83731c07c17909155601780549091167394f660d45ca7ee9537f55dafc4d3c5d306d6f7ca1790553480156200030f57600080fd5b5060008054336001600160a01b0319918216811790925560038054909116909117905562000451565b82805482825590600052602060002090810192821562000390579160200282015b828111156200039057825182546001600160a01b0319166001600160a01b0390911617825560209092019160019091019062000359565b506200039e92915062000424565b5090565b82805482825590600052602060002090810192821562000390579160200282015b8281111562000390578251825591602001919060010190620003c3565b82805482825590600052602060002090810192821562000390579160200282015b8281111562000390578251829061ffff1690559160200191906001019062000401565b5b808211156200039e576000815560010162000425565b634e487b7160e01b600052604160045260246000fd5b612ea980620004616000396000f3fe6080604052600436106102255760003560e01c80639c2afd2d11610123578063c00007b0116100ab578063e4e09cb71161006f578063e4e09cb71461067b578063ecd6235d1461069b578063ee73c662146106bb578063ef24180a146106db578063f2fde38b146106f557600080fd5b8063c00007b0146105ce578063c53917aa146105ee578063d5a2c5db1461061b578063e1a199651461063b578063e3c00b201461065b57600080fd5b8063a9d7baac116100f2578063a9d7baac14610538578063ad2c22e11461054b578063b6c325931461056b578063b851fccd14610581578063b93cdb85146105a157600080fd5b80639c2afd2d146104915780639d25b329146104be578063a3bacbcd146104eb578063a5a637441461051857600080fd5b806369ad693a116101b15780638a607339116101755780638a607339146103e35780638da5cb5b146104035780638df82bd6146104215780638e39db741461044157806392241d571461046157600080fd5b806369ad693a1461034157806370a082311461036e578063715018a61461038e57806378f9facf146103a357806386481d40146103c357600080fd5b80632a0f3012116101f85780632a0f3012146102cb57806334403763146102ed5780633ccfd60b146103035780635f96d5491461030b578063673402e51461032b57600080fd5b80630242e7de1461022a5780630db586911461026757806318db46f714610295578063267e8ab6146102ab575b600080fd5b34801561023657600080fd5b5061024a610245366004612ae6565b610715565b6040516001600160a01b0390911681526020015b60405180910390f35b34801561027357600080fd5b50610287610282366004612ae6565b61073f565b60405190815260200161025e565b3480156102a157600080fd5b5061028760015481565b3480156102b757600080fd5b506102876102c63660046129bb565b610760565b3480156102d757600080fd5b506102eb6102e6366004612ae6565b6107e5565b005b3480156102f957600080fd5b5061028760025481565b6102eb61081d565b34801561031757600080fd5b5061024a610326366004612ae6565b61086d565b34801561033757600080fd5b5061028760155481565b34801561034d57600080fd5b5061028761035c366004612ae6565b60056020526000908152604090205481565b34801561037a57600080fd5b506102876103893660046129bb565b61087d565b34801561039a57600080fd5b506102eb6108b0565b3480156103af57600080fd5b506102876103be366004612ae6565b610924565b3480156103cf57600080fd5b506102876103de366004612ae6565b61093e565b3480156103ef57600080fd5b506102eb6103fe3660046129bb565b61099e565b34801561040f57600080fd5b506000546001600160a01b031661024a565b34801561042d57600080fd5b5061028761043c366004612ae6565b610b7b565b34801561044d57600080fd5b5061028761045c366004612ae6565b610b8b565b34801561046d57600080fd5b5061048161047c3660046129f5565b610b9b565b604051901515815260200161025e565b34801561049d57600080fd5b506102876104ac366004612ae6565b60096020526000908152604090205481565b3480156104ca57600080fd5b506102876104d9366004612ae6565b60066020526000908152604090205481565b3480156104f757600080fd5b50610287610506366004612ae6565b60046020526000908152604090205481565b34801561052457600080fd5b5061024a610533366004612ae6565b610c65565b6102eb610546366004612ae6565b610c75565b34801561055757600080fd5b506102eb610566366004612b18565b611064565b34801561057757600080fd5b50610287600a5481565b34801561058d57600080fd5b5061028761059c366004612ae6565b6116dd565b3480156105ad57600080fd5b506102876105bc366004612ae6565b60086020526000908152604090205481565b3480156105da57600080fd5b506102eb6105e93660046129bb565b6116ed565b3480156105fa57600080fd5b50610287610609366004612ae6565b60076020526000908152604090205481565b34801561062757600080fd5b506102eb610636366004612ae6565b61174f565b34801561064757600080fd5b5061024a610656366004612ae6565b611948565b34801561066757600080fd5b506102eb610676366004612ae6565b611958565b34801561068757600080fd5b506102eb610696366004612ae6565b611aec565b3480156106a757600080fd5b506104816106b6366004612ae6565b611b1b565b3480156106c757600080fd5b506102876106d6366004612ae6565b611b4c565b3480156106e757600080fd5b506013546104819060ff1681565b34801561070157600080fd5b506102eb6107103660046129bb565b611b5c565b600b818154811061072557600080fd5b6000918252602090912001546001600160a01b0316905081565b6014818154811061074f57600080fd5b600091825260209091200154905081565b60175460405163133f455b60e11b81526001600160a01b038381166004830152600092169063267e8ab6906024015b60206040518083038186803b1580156107a757600080fd5b505afa1580156107bb573d6000803e3d6000fd5b505050506040513d601f19601f820116820180604052508101906107df9190612aff565b92915050565b6000546001600160a01b031633146108185760405162461bcd60e51b815260040161080f90612bf4565b60405180910390fd5b600255565b6000546001600160a01b031633146108475760405162461bcd60e51b815260040161080f90612bf4565b60405133904780156108fc02916000818181858888f1935050505061086b57600080fd5b565b600c818154811061072557600080fd5b6017546040516370a0823160e01b81526001600160a01b03838116600483015260009216906370a082319060240161078f565b6000546001600160a01b031633146108da5760405162461bcd60e51b815260040161080f90612bf4565b600080546040516001600160a01b03909116907f8be0079c531659141344cd1fd0a4f28419497f9722a3daafe3b4186f6b6457e0908390a3600080546001600160a01b0319169055565b6000818152600960205260408120546107df904290611c46565b60008181526008602090815260408083205460078352818420546006845282852054600585528386205460049095529285205491939092916109809190612c29565b61098a9190612c29565b6109949190612c29565b6107df9190612c29565b60165460405162438b6360e81b81526001600160a01b038381166004830152600092169063438b63009060240160006040518083038186803b1580156109e357600080fd5b505afa1580156109f7573d6000803e3d6000fd5b505050506040513d6000823e601f3d908101601f19168201604052610a1f9190810190612a21565b90506000806000805b8451811015610af157610a53858281518110610a4657610a46612e32565b6020026020010151611b1b565b15610adf574260096000878481518110610a6f57610a6f612e32565b6020026020010151815260200190815260200160002081905550601554610aa18380610a9a90612dde565b9450611ca9565b610aab9190612df2565b92506059831115610ac857610ac1600585612c6a565b9350610adf565b6009831115610adf57610adc600185612c6a565b93505b80610ae981612dde565b915050610a28565b506017546001600160a01b03166340c10f1986610b1686670de0b6b3a7640000612d49565b6040516001600160e01b031960e085901b1681526001600160a01b0390921660048301526024820152604401600060405180830381600087803b158015610b5c57600080fd5b505af1158015610b70573d6000803e3d6000fd5b505050505050505050565b6011818154811061074f57600080fd5b6012818154811061074f57600080fd5b6000818152600960205260408120546001906201518090610bbd904290611c46565b1015610bc7575060005b60005b600a54811015610c5d57846001600160a01b0316600b8281548110610bf157610bf1612e32565b6000918252602090912001546001600160a01b03161480610c415750846001600160a01b0316600c8281548110610c2a57610c2a612e32565b6000918252602090912001546001600160a01b0316145b15610c4b57600091505b80610c5581612dde565b915050610bca565b509392505050565b6010818154811061072557600080fd5b3460015414610cc65760405162461bcd60e51b815260206004820152601e60248201527f41766178466f7865733a20696e76616c69642065746865722076616c75650000604482015260640161080f565b6002546040516370a0823160e01b815233600482015230906370a082319060240160206040518083038186803b158015610cff57600080fd5b505afa158015610d13573d6000803e3d6000fd5b505050506040513d601f19601f82011682018060405250810190610d379190612aff565b11610d545760405162461bcd60e51b815260040161080f90612b5b565b6016546040516331a9108f60e11b81526004810183905233916001600160a01b031690636352211e9060240160206040518083038186803b158015610d9857600080fd5b505afa158015610dac573d6000803e3d6000fd5b505050506040513d601f19601f82011682018060405250810190610dd091906129d8565b6001600160a01b031614610df65760405162461bcd60e51b815260040161080f90612ba1565b610e003382610b9b565b610e4c5760405162461bcd60e51b815260206004820152601d60248201527f4176617820466f7865733a20596f752063616e74206a6f696e20707670000000604482015260640161080f565b601754600254604051632770a7eb60e21b815233600482015260248101919091526001600160a01b0390911690639dc29fac90604401600060405180830381600087803b158015610e9c57600080fd5b505af1158015610eb0573d6000803e3d6000fd5b505050600082815260096020526040812042905590505b600a548110156110125760006001600160a01b0316600b8281548110610eef57610eef612e32565b6000918252602090912001546001600160a01b03161415610f715733600b8281548110610f1e57610f1e612e32565b9060005260206000200160006101000a8154816001600160a01b0302191690836001600160a01b0316021790555081600d8281548110610f6057610f60612e32565b600091825260209091200155611012565b60006001600160a01b0316600c8281548110610f8f57610f8f612e32565b6000918252602090912001546001600160a01b031614156110005733600c8281548110610fbe57610fbe612e32565b9060005260206000200160006101000a8154816001600160a01b0302191690836001600160a01b0316021790555081600e8281548110610f6057610f60612e32565b8061100a81612dde565b915050610ec7565b5060006001600160a01b0316600c6001600a5461102f9190612da7565b8154811061103f5761103f612e32565b6000918252602090912001546001600160a01b03161461106157611061611cf1565b50565b6016546040516331a9108f60e11b81526004810188905233916001600160a01b031690636352211e9060240160206040518083038186803b1580156110a857600080fd5b505afa1580156110bc573d6000803e3d6000fd5b505050506040513d601f19601f820116820180604052508101906110e091906129d8565b6001600160a01b03161461115c5760405162461bcd60e51b815260206004820152603b60248201527f41766178466f7865733a20596f752063616e206f6e6c7920696e63726561736560448201527f207374617473206f6620796f7572206f776e204176617820466f780000000000606482015260840161080f565b8415158061116957508315155b8061117357508215155b8061117d57508115155b8061118757508015155b6111d35760405162461bcd60e51b815260206004820181905260248201527f41766178466f7865733a20416c6c2073746174732061726520676976656e2030604482015260640161080f565b6000805b86811215611222576000888152600460205260409020546111f9908290612c29565b611204906001612c29565b61120e9083612c29565b91508061121a81612dbe565b9150506111d7565b5060005b8581121561127157600088815260056020526040902054611248908290612c29565b611253906001612c29565b61125d9083612c29565b91508061126981612dbe565b915050611226565b5060005b848112156112c057600088815260066020526040902054611297908290612c29565b6112a2906001612c29565b6112ac9083612c29565b9150806112b881612dbe565b915050611275565b5060005b8381121561130f576000888152600760205260409020546112e6908290612c29565b6112f1906001612c29565b6112fb9083612c29565b91508061130781612dbe565b9150506112c4565b5060005b8281121561135e57600088815260086020526040902054611335908290612c29565b611340906001612c29565b61134a9083612c29565b91508061135681612dbe565b915050611313565b5061137181670de0b6b3a7640000612d49565b6040516370a0823160e01b815233600482015230906370a082319060240160206040518083038186803b1580156113a757600080fd5b505afa1580156113bb573d6000803e3d6000fd5b505050506040513d601f19601f820116820180604052508101906113df9190612aff565b10156113fd5760405162461bcd60e51b815260040161080f90612b5b565b6017546001600160a01b0316639dc29fac3361142184670de0b6b3a7640000612d49565b6040516001600160e01b031960e085901b1681526001600160a01b0390921660048301526024820152604401600060405180830381600087803b15801561146757600080fd5b505af115801561147b573d6000803e3d6000fd5b5050506000888152600460205260408120805489935090919061149f908490612c29565b9091555050600087815260056020526040812080548792906114c2908490612c29565b9091555050600087815260066020526040812080548692906114e5908490612c29565b909155505060008781526007602052604081208054859290611508908490612c29565b90915550506000878152600860205260408120805484929061152b908490612c29565b92505081905550611559601460008154811061154957611549612e32565b906000526020600020015461093e565b6115628861093e565b131561161057601460018154811061157c5761157c612e32565b9060005260206000200154601460028154811061159b5761159b612e32565b906000526020600020018190555060146000815481106115bd576115bd612e32565b906000526020600020015460146001815481106115dc576115dc612e32565b90600052602060002001819055508660146000815481106115ff576115ff612e32565b6000918252602090912001556116d4565b611627601460018154811061154957611549612e32565b6116308861093e565b131561168c57601460018154811061164a5761164a612e32565b9060005260206000200154601460028154811061166957611669612e32565b90600052602060002001819055508660146001815481106115ff576115ff612e32565b6116a3601460028154811061154957611549612e32565b6116ac8861093e565b13156116d4578660146002815481106116c7576116c7612e32565b6000918252602090912001555b50505050505050565b600d818154811061074f57600080fd5b601754604051630c00007b60e41b81526001600160a01b0383811660048301529091169063c00007b090602401600060405180830381600087803b15801561173457600080fd5b505af1158015611748573d6000803e3d6000fd5b5050505050565b6016546040516331a9108f60e11b81526004810183905233916001600160a01b031690636352211e9060240160206040518083038186803b15801561179357600080fd5b505afa1580156117a7573d6000803e3d6000fd5b505050506040513d601f19601f820116820180604052508101906117cb91906129d8565b6001600160a01b0316146117f15760405162461bcd60e51b815260040161080f90612ba1565b6117fa81611b1b565b6118465760405162461bcd60e51b815260206004820152601e60248201527f4176617820466f7865733a20596f752063616e74206a6f696e2068756e740000604482015260640161080f565b60008181526009602052604081204290556015546118646001611ca9565b61186e9190612df2565b905060598111156118e8576017546040516340c10f1960e01b8152336004820152674563918244f4000060248201526001600160a01b03909116906340c10f1990604401600060405180830381600087803b1580156118cc57600080fd5b505af11580156118e0573d6000803e3d6000fd5b505050505050565b6009811115611944576017546040516340c10f1960e01b8152336004820152670de0b6b3a764000060248201526001600160a01b03909116906340c10f1990604401600060405180830381600087803b1580156118cc57600080fd5b5050565b600f818154811061072557600080fd5b6000546001600160a01b031633146119825760405162461bcd60e51b815260040161080f90612bf4565b600a8190558067ffffffffffffffff8111156119a0576119a0612e48565b6040519080825280602002602001820160405280156119c9578160200160208202803683370190505b5080516119de91600b91602090910190612906565b50600a5467ffffffffffffffff8111156119fa576119fa612e48565b604051908082528060200260200182016040528015611a23578160200160208202803683370190505b508051611a3891600c91602090910190612906565b50600a5467ffffffffffffffff811115611a5457611a54612e48565b604051908082528060200260200182016040528015611a7d578160200160208202803683370190505b508051611a9291600d9160209091019061296b565b50600a5467ffffffffffffffff811115611aae57611aae612e48565b604051908082528060200260200182016040528015611ad7578160200160208202803683370190505b50805161194491600e9160209091019061296b565b6000546001600160a01b03163314611b165760405162461bcd60e51b815260040161080f90612bf4565b600155565b6000818152600960205260408120546001906201518090611b3d904290611c46565b10156107df5750600092915050565b600e818154811061074f57600080fd5b6000546001600160a01b03163314611b865760405162461bcd60e51b815260040161080f90612bf4565b6001600160a01b038116611beb5760405162461bcd60e51b815260206004820152602660248201527f4f776e61626c653a206e6577206f776e657220697320746865207a65726f206160448201526564647265737360d01b606482015260840161080f565b600080546040516001600160a01b03808516939216917f8be0079c531659141344cd1fd0a4f28419497f9722a3daafe3b4186f6b6457e091a3600080546001600160a01b0319166001600160a01b0392909216919091179055565b600082821115611c985760405162461bcd60e51b815260206004820152601e60248201527f536166654d6174683a207375627472616374696f6e206f766572666c6f770000604482015260640161080f565b611ca28284612da7565b9392505050565b60008142601554604051602001611cd3939291909283526020830191909152604082015260600190565b60408051601f19818403018152919052805160209091012092915050565b60006040518060a00160405280600181526020016001815260200160018152602001600181526020016001815250905060006040518060a00160405280600181526020016001815260200160018152602001600181526020016001815250905060006001905060005b600a548110156120435760046000600d8381548110611d7b57611d7b612e32565b906000526020600020015481526020019081526020016000205484600001818151611da69190612c29565b905250600d805460059160009184908110611dc357611dc3612e32565b906000526020600020015481526020019081526020016000205484602001818151611dee9190612c29565b905250600d805460069160009184908110611e0b57611e0b612e32565b906000526020600020015481526020019081526020016000205484604001818151611e369190612c29565b905250600d805460079160009184908110611e5357611e53612e32565b906000526020600020015481526020019081526020016000205484606001818151611e7e9190612c29565b905250600d805460089160009184908110611e9b57611e9b612e32565b906000526020600020015481526020019081526020016000205484608001818151611ec69190612c29565b905250600e805460049160009184908110611ee357611ee3612e32565b906000526020600020015481526020019081526020016000205483600001818151611f0e9190612c29565b905250600e805460059160009184908110611f2b57611f2b612e32565b906000526020600020015481526020019081526020016000205483602001818151611f569190612c29565b905250600e805460069160009184908110611f7357611f73612e32565b906000526020600020015481526020019081526020016000205483604001818151611f9e9190612c29565b905250600e805460079160009184908110611fbb57611fbb612e32565b906000526020600020015481526020019081526020016000205483606001818151611fe69190612c29565b905250600e80546008916000918490811061200357612003612e32565b90600052602060002001548152602001908152602001600020548360800181815161202e9190612c29565b9052508061203b81612dde565b915050611d5a565b508251612051906064612cc4565b83526020830151612063906064612cc4565b60208401528151612075906064612cc4565b82526020820151612087906064612cc4565b60208301526014600080805b600087602001511380156120ab575060008660200151135b80156120b75750600a83105b1561229d57826120c681612dde565b93505085608001518760600151856120de9190612d68565b6120e89190612c29565b6015546120ff876120f881612dde565b9850611ca9565b6121099190612df2565b13156121ba5760146121258661211e81612dde565b9750611ca9565b61212f9190612df2565b61213a906050612c6a565b9150606482886000015161214e9190612cc4565b6121589190612c82565b9050866040015160155461217087806120f890612dde565b61217a9190612df2565b12156121a45761218b816002612cc4565b8660200181815161219c9190612d68565b9052506121ba565b80866020018181516121b69190612d68565b9052505b608087015160608701516121ce9086612d68565b6121d89190612c29565b6015546121e8876120f881612dde565b6121f29190612df2565b13156122985760146122078661211e81612dde565b6122119190612df2565b61221c906050612c6a565b915060648287600001516122309190612cc4565b61223a9190612c82565b9050856040015160155461225287806120f890612dde565b61225c9190612df2565b12156122865761226d816002612cc4565b8760200181815161227e9190612d68565b905250612093565b808760200181815161227e9190612d68565b612093565b86602001518660200151121561234f5760005b600a5481101561233f57600b81815481106122cd576122cd612e32565b6000918252602090912001546001546001600160a01b03909116906108fc9061230490600a906122fe90601261282c565b906128ab565b6040518115909202916000818181858888f1935050505015801561232c573d6000803e3d6000fd5b508061233781612dde565b9150506122b0565b506013805460ff19169055612545565b8660200151866020015113156123fe5760005b600a548110156123eb57600c818154811061237f5761237f612e32565b6000918252602090912001546001546001600160a01b03909116906108fc906123b090600a906122fe90601261282c565b6040518115909202916000818181858888f193505050501580156123d8573d6000803e3d6000fd5b50806123e381612dde565b915050612362565b506013805460ff19166001179055612545565b603160155461241187806120f890612dde565b61241b9190612df2565b11156124ad5760005b600a548110156123eb57600c818154811061244157612441612e32565b6000918252602090912001546001546001600160a01b03909116906108fc9061247290600a906122fe90601261282c565b6040518115909202916000818181858888f1935050505015801561249a573d6000803e3d6000fd5b50806124a581612dde565b915050612424565b60005b600a5481101561253957600b81815481106124cd576124cd612e32565b6000918252602090912001546001546001600160a01b03909116906108fc906124fe90600a906122fe90601261282c565b6040518115909202916000818181858888f19350505050158015612526573d6000803e3d6000fd5b508061253181612dde565b9150506124b0565b506013805460ff191690555b60005b600a548110156126ba57600b818154811061256557612565612e32565b600091825260209091200154600f80546001600160a01b03909216918390811061259157612591612e32565b9060005260206000200160006101000a8154816001600160a01b0302191690836001600160a01b03160217905550600c81815481106125d2576125d2612e32565b600091825260209091200154601080546001600160a01b0390921691839081106125fe576125fe612e32565b9060005260206000200160006101000a8154816001600160a01b0302191690836001600160a01b03160217905550600d818154811061263f5761263f612e32565b90600052602060002001546011828154811061265d5761265d612e32565b9060005260206000200181905550600e818154811061267e5761267e612e32565b90600052602060002001546012828154811061269c5761269c612e32565b600091825260209091200155806126b281612dde565b915050612548565b50600a5467ffffffffffffffff8111156126d6576126d6612e48565b6040519080825280602002602001820160405280156126ff578160200160208202803683370190505b50805161271491600b91602090910190612906565b50600a5467ffffffffffffffff81111561273057612730612e48565b604051908082528060200260200182016040528015612759578160200160208202803683370190505b50805161276e91600c91602090910190612906565b50600a5467ffffffffffffffff81111561278a5761278a612e48565b6040519080825280602002602001820160405280156127b3578160200160208202803683370190505b5080516127c891600d9160209091019061296b565b50600a5467ffffffffffffffff8111156127e4576127e4612e48565b60405190808252806020026020018201604052801561280d578160200160208202803683370190505b50805161282291600e9160209091019061296b565b5050505050505050565b60008261283b575060006107df565b60006128478385612d49565b9050826128548583612cb0565b14611ca25760405162461bcd60e51b815260206004820152602160248201527f536166654d6174683a206d756c7469706c69636174696f6e206f766572666c6f6044820152607760f81b606482015260840161080f565b60008082116128fc5760405162461bcd60e51b815260206004820152601a60248201527f536166654d6174683a206469766973696f6e206279207a65726f000000000000604482015260640161080f565b611ca28284612cb0565b82805482825590600052602060002090810192821561295b579160200282015b8281111561295b57825182546001600160a01b0319166001600160a01b03909116178255602090920191600190910190612926565b506129679291506129a6565b5090565b82805482825590600052602060002090810192821561295b579160200282015b8281111561295b57825182559160200191906001019061298b565b5b8082111561296757600081556001016129a7565b6000602082840312156129cd57600080fd5b8135611ca281612e5e565b6000602082840312156129ea57600080fd5b8151611ca281612e5e565b60008060408385031215612a0857600080fd5b8235612a1381612e5e565b946020939093013593505050565b60006020808385031215612a3457600080fd5b825167ffffffffffffffff80821115612a4c57600080fd5b818501915085601f830112612a6057600080fd5b815181811115612a7257612a72612e48565b8060051b604051601f19603f83011681018181108582111715612a9757612a97612e48565b604052828152858101935084860182860187018a1015612ab657600080fd5b600095505b83861015612ad9578051855260019590950194938601938601612abb565b5098975050505050505050565b600060208284031215612af857600080fd5b5035919050565b600060208284031215612b1157600080fd5b5051919050565b60008060008060008060c08789031215612b3157600080fd5b505084359660208601359650604086013595606081013595506080810135945060a0013592509050565b60208082526026908201527f41766178466f7865733a20796f7520646f6e74206861766520656e6f75676820604082015265746f6b656e7360d01b606082015260800190565b60208082526033908201527f41766178466f7865733a20596f752063616e206f6e6c79206a6f696e207769746040820152720d040f2deeae440deeedc4082ecc2f0408cdef606b1b606082015260800190565b6020808252818101527f4f776e61626c653a2063616c6c6572206973206e6f7420746865206f776e6572604082015260600190565b600080821280156001600160ff1b0384900385131615612c4b57612c4b612e06565b600160ff1b8390038412811615612c6457612c64612e06565b50500190565b60008219821115612c7d57612c7d612e06565b500190565b600082612c9157612c91612e1c565b600160ff1b821460001984141615612cab57612cab612e06565b500590565b600082612cbf57612cbf612e1c565b500490565b60006001600160ff1b0381841382841380821686840486111615612cea57612cea612e06565b600160ff1b6000871282811687830589121615612d0957612d09612e06565b60008712925087820587128484161615612d2557612d25612e06565b87850587128184161615612d3b57612d3b612e06565b505050929093029392505050565b6000816000190483118215151615612d6357612d63612e06565b500290565b60008083128015600160ff1b850184121615612d8657612d86612e06565b6001600160ff1b0384018313811615612da157612da1612e06565b50500390565b600082821015612db957612db9612e06565b500390565b60006001600160ff1b03821415612dd757612dd7612e06565b5060010190565b6000600019821415612dd757612dd7612e06565b600082612e0157612e01612e1c565b500690565b634e487b7160e01b600052601160045260246000fd5b634e487b7160e01b600052601260045260246000fd5b634e487b7160e01b600052603260045260246000fd5b634e487b7160e01b600052604160045260246000fd5b6001600160a01b038116811461106157600080fdfea264697066735822122084e4ad7e548dcfb62fff2d0a44d5f05c651dd9122a561dd43c79a49ae3e73d4064736f6c63430008070033",
  "immutableReferences": {},
  "source": "/**\r\n *Submitted for verification at Etherscan.io on 2021-04-16\r\n*/\r\n\r\n// SPDX-License-Identifier: MIT\r\n\r\npragma solidity 0.8.7;\r\n\r\n\r\n\r\n// Part: IKongz\r\n\r\nabstract contract AvaxFoxes {\r\n\tfunction balanceOf(address _user) external view returns(uint256) {}\r\n    function walletOfOwner(address _owner) public view returns (uint256[] memory) {}\r\n    function ownerOf(uint256 tokenId) public view virtual returns (address) {}\r\n}\r\n\r\nabstract contract AvaxFoxesToken {\r\n    function getTotalClaimable(address _user) public view returns(uint256){}\r\n    function getReward(address _from) public {}\r\n    function burn(address _from, uint256 _amount) external {}\r\n\tfunction balanceOf(address _user) external view returns(uint256) {}\r\n    function mint(address _to, uint256 _amount) external {}    \r\n}\r\n\r\n/**\r\n *Submitted for verification at snowtrace.io on 2021-11-11\r\n*/\r\n\r\n// Sources flattened with hardhat v2.1.1 https://hardhat.org\r\n\r\n// File @openzeppelin/contracts/utils/Context.sol@v3.4.1\r\n\r\n\r\n\r\n//pragma solidity >=0.6.0 <0.8.0;\r\n\r\n/*\r\n * @dev Provides information about the current execution context, including the\r\n * sender of the transaction and its data. While these are generally available\r\n * via msg.sender and msg.data, they should not be accessed in such a direct\r\n * manner, since when dealing with GSN meta-transactions the account sending and\r\n * paying for execution may not be the actual sender (as far as an application\r\n * is concerned).\r\n *\r\n * This contract is only required for intermediate, library-like contracts.\r\n */\r\n\r\n \r\nabstract contract Context {\r\n    function _msgSender() internal view virtual returns (address) {\r\n        return msg.sender;\r\n    }\r\n\r\n    function _msgData() internal view virtual returns (bytes memory) {\r\n        this; // silence state mutability warning without generating bytecode - see https://github.com/ethereum/solidity/issues/2691\r\n        return msg.data;\r\n    }\r\n}\r\n\r\n\r\n// File @openzeppelin/contracts/token/ERC20/IERC20.sol@v3.4.1\r\n\r\n//pragma solidity >=0.6.0 <0.8.0;\r\n\r\n/**\r\n * @dev Interface of the ERC20 standard as defined in the EIP.\r\n */\r\n\r\n\r\n// File @openzeppelin/contracts/math/SafeMath.sol@v3.4.1\r\n\r\n//pragma solidity >=0.6.0 <0.8.0;\r\n\r\n/**\r\n * @dev Wrappers over Solidity's arithmetic operations with added overflow\r\n * checks.\r\n *\r\n * Arithmetic operations in Solidity wrap on overflow. This can easily result\r\n * in bugs, because programmers usually assume that an overflow raises an\r\n * error, which is the standard behavior in high level programming languages.\r\n * `SafeMath` restores this intuition by reverting the transaction when an\r\n * operation overflows.\r\n *\r\n * Using this library instead of the unchecked operations eliminates an entire\r\n * class of bugs, so it's recommended to use it always.\r\n */\r\nlibrary SafeMath {\r\n    /**\r\n     * @dev Returns the addition of two unsigned integers, with an overflow flag.\r\n     *\r\n     * _Available since v3.4._\r\n     */\r\n    function tryAdd(uint256 a, uint256 b) internal pure returns (bool, uint256) {\r\n        uint256 c = a + b;\r\n        if (c < a) return (false, 0);\r\n        return (true, c);\r\n    }\r\n\r\n    /**\r\n     * @dev Returns the substraction of two unsigned integers, with an overflow flag.\r\n     *\r\n     * _Available since v3.4._\r\n     */\r\n    function trySub(uint256 a, uint256 b) internal pure returns (bool, uint256) {\r\n        if (b > a) return (false, 0);\r\n        return (true, a - b);\r\n    }\r\n\r\n    /**\r\n     * @dev Returns the multiplication of two unsigned integers, with an overflow flag.\r\n     *\r\n     * _Available since v3.4._\r\n     */\r\n    function tryMul(uint256 a, uint256 b) internal pure returns (bool, uint256) {\r\n        // Gas optimization: this is cheaper than requiring 'a' not being zero, but the\r\n        // benefit is lost if 'b' is also tested.\r\n        // See: https://github.com/OpenZeppelin/openzeppelin-contracts/pull/522\r\n        if (a == 0) return (true, 0);\r\n        uint256 c = a * b;\r\n        if (c / a != b) return (false, 0);\r\n        return (true, c);\r\n    }\r\n\r\n    /**\r\n     * @dev Returns the division of two unsigned integers, with a division by zero flag.\r\n     *\r\n     * _Available since v3.4._\r\n     */\r\n    function tryDiv(uint256 a, uint256 b) internal pure returns (bool, uint256) {\r\n        if (b == 0) return (false, 0);\r\n        return (true, a / b);\r\n    }\r\n\r\n    /**\r\n     * @dev Returns the remainder of dividing two unsigned integers, with a division by zero flag.\r\n     *\r\n     * _Available since v3.4._\r\n     */\r\n    function tryMod(uint256 a, uint256 b) internal pure returns (bool, uint256) {\r\n        if (b == 0) return (false, 0);\r\n        return (true, a % b);\r\n    }\r\n\r\n    /**\r\n     * @dev Returns the addition of two unsigned integers, reverting on\r\n     * overflow.\r\n     *\r\n     * Counterpart to Solidity's `+` operator.\r\n     *\r\n     * Requirements:\r\n     *\r\n     * - Addition cannot overflow.\r\n     */\r\n    function add(uint256 a, uint256 b) internal pure returns (uint256) {\r\n        uint256 c = a + b;\r\n        require(c >= a, \"SafeMath: addition overflow\");\r\n        return c;\r\n    }\r\n\r\n    /**\r\n     * @dev Returns the subtraction of two unsigned integers, reverting on\r\n     * overflow (when the result is negative).\r\n     *\r\n     * Counterpart to Solidity's `-` operator.\r\n     *\r\n     * Requirements:\r\n     *\r\n     * - Subtraction cannot overflow.\r\n     */\r\n    function sub(uint256 a, uint256 b) internal pure returns (uint256) {\r\n        require(b <= a, \"SafeMath: subtraction overflow\");\r\n        return a - b;\r\n    }\r\n\r\n    /**\r\n     * @dev Returns the multiplication of two unsigned integers, reverting on\r\n     * overflow.\r\n     *\r\n     * Counterpart to Solidity's `*` operator.\r\n     *\r\n     * Requirements:\r\n     *\r\n     * - Multiplication cannot overflow.\r\n     */\r\n    function mul(uint256 a, uint256 b) internal pure returns (uint256) {\r\n        if (a == 0) return 0;\r\n        uint256 c = a * b;\r\n        require(c / a == b, \"SafeMath: multiplication overflow\");\r\n        return c;\r\n    }\r\n\r\n    /**\r\n     * @dev Returns the integer division of two unsigned integers, reverting on\r\n     * division by zero. The result is rounded towards zero.\r\n     *\r\n     * Counterpart to Solidity's `/` operator. Note: this function uses a\r\n     * `revert` opcode (which leaves remaining gas untouched) while Solidity\r\n     * uses an invalid opcode to revert (consuming all remaining gas).\r\n     *\r\n     * Requirements:\r\n     *\r\n     * - The divisor cannot be zero.\r\n     */\r\n    function div(uint256 a, uint256 b) internal pure returns (uint256) {\r\n        require(b > 0, \"SafeMath: division by zero\");\r\n        return a / b;\r\n    }\r\n\r\n    /**\r\n     * @dev Returns the remainder of dividing two unsigned integers. (unsigned integer modulo),\r\n     * reverting when dividing by zero.\r\n     *\r\n     * Counterpart to Solidity's `%` operator. This function uses a `revert`\r\n     * opcode (which leaves remaining gas untouched) while Solidity uses an\r\n     * invalid opcode to revert (consuming all remaining gas).\r\n     *\r\n     * Requirements:\r\n     *\r\n     * - The divisor cannot be zero.\r\n     */\r\n    function mod(uint256 a, uint256 b) internal pure returns (uint256) {\r\n        require(b > 0, \"SafeMath: modulo by zero\");\r\n        return a % b;\r\n    }\r\n\r\n    /**\r\n     * @dev Returns the subtraction of two unsigned integers, reverting with custom message on\r\n     * overflow (when the result is negative).\r\n     *\r\n     * CAUTION: This function is deprecated because it requires allocating memory for the error\r\n     * message unnecessarily. For custom revert reasons use {trySub}.\r\n     *\r\n     * Counterpart to Solidity's `-` operator.\r\n     *\r\n     * Requirements:\r\n     *\r\n     * - Subtraction cannot overflow.\r\n     */\r\n    function sub(uint256 a, uint256 b, string memory errorMessage) internal pure returns (uint256) {\r\n        require(b <= a, errorMessage);\r\n        return a - b;\r\n    }\r\n\r\n    /**\r\n     * @dev Returns the integer division of two unsigned integers, reverting with custom message on\r\n     * division by zero. The result is rounded towards zero.\r\n     *\r\n     * CAUTION: This function is deprecated because it requires allocating memory for the error\r\n     * message unnecessarily. For custom revert reasons use {tryDiv}.\r\n     *\r\n     * Counterpart to Solidity's `/` operator. Note: this function uses a\r\n     * `revert` opcode (which leaves remaining gas untouched) while Solidity\r\n     * uses an invalid opcode to revert (consuming all remaining gas).\r\n     *\r\n     * Requirements:\r\n     *\r\n     * - The divisor cannot be zero.\r\n     */\r\n    function div(uint256 a, uint256 b, string memory errorMessage) internal pure returns (uint256) {\r\n        require(b > 0, errorMessage);\r\n        return a / b;\r\n    }\r\n\r\n    /**\r\n     * @dev Returns the remainder of dividing two unsigned integers. (unsigned integer modulo),\r\n     * reverting with custom message when dividing by zero.\r\n     *\r\n     * CAUTION: This function is deprecated because it requires allocating memory for the error\r\n     * message unnecessarily. For custom revert reasons use {tryMod}.\r\n     *\r\n     * Counterpart to Solidity's `%` operator. This function uses a `revert`\r\n     * opcode (which leaves remaining gas untouched) while Solidity uses an\r\n     * invalid opcode to revert (consuming all remaining gas).\r\n     *\r\n     * Requirements:\r\n     *\r\n     * - The divisor cannot be zero.\r\n     */\r\n    function mod(uint256 a, uint256 b, string memory errorMessage) internal pure returns (uint256) {\r\n        require(b > 0, errorMessage);\r\n        return a % b;\r\n    }\r\n}\r\n\r\n\r\n// File @openzeppelin/contracts/token/ERC20/ERC20.sol@v3.4.1\r\n\r\n//pragma solidity >=0.6.0 <0.8.0;\r\n\r\n\r\n\r\n/**\r\n * @dev Implementation of the {IERC20} interface.\r\n *\r\n * This implementation is agnostic to the way tokens are created. This means\r\n * that a supply mechanism has to be added in a derived contract using {_mint}.\r\n * For a generic mechanism see {ERC20PresetMinterPauser}.\r\n *\r\n * TIP: For a detailed writeup see our guide\r\n * https://forum.zeppelin.solutions/t/how-to-implement-erc20-supply-mechanisms/226[How\r\n * to implement supply mechanisms].\r\n *\r\n * We have followed general OpenZeppelin guidelines: functions revert instead\r\n * of returning `false` on failure. This behavior is nonetheless conventional\r\n * and does not conflict with the expectations of ERC20 applications.\r\n *\r\n * Additionally, an {Approval} event is emitted on calls to {transferFrom}.\r\n * This allows applications to reconstruct the allowance for all accounts just\r\n * by listening to said events. Other implementations of the EIP may not emit\r\n * these events, as it isn't required by the specification.\r\n *\r\n * Finally, the non-standard {decreaseAllowance} and {increaseAllowance}\r\n * functions have been added to mitigate the well-known issues around setting\r\n * allowances. See {IERC20-approve}.\r\n */\r\n\r\n\r\n// File @openzeppelin/contracts/access/Ownable.sol@v3.4.1\r\n\r\n//pragma solidity >=0.6.0 <0.8.0;\r\n\r\n/**\r\n * @dev Contract module which provides a basic access control mechanism, where\r\n * there is an account (an owner) that can be granted exclusive access to\r\n * specific functions.\r\n *\r\n * By default, the owner account will be the one that deploys the contract. This\r\n * can later be changed with {transferOwnership}.\r\n *\r\n * This module is used through inheritance. It will make available the modifier\r\n * `onlyOwner`, which can be applied to your functions to restrict their use to\r\n * the owner.\r\n */\r\nabstract contract Ownable is Context {\r\n    address private _owner;\r\n\r\n    event OwnershipTransferred(address indexed previousOwner, address indexed newOwner);\r\n\r\n    /**\r\n     * @dev Initializes the contract setting the deployer as the initial owner.\r\n     */\r\n    constructor (){\r\n        address msgSender = _msgSender();\r\n        _owner = msgSender;\r\n        //emit OwnershipTransferred(address(0), msgSender);\r\n    }\r\n\r\n    /**\r\n     * @dev Returns the address of the current owner.\r\n     */\r\n    function owner() public view virtual returns (address) {\r\n        return _owner;\r\n    }\r\n\r\n    /**\r\n     * @dev Throws if called by any account other than the owner.\r\n     */\r\n    modifier onlyOwner() {\r\n        require(owner() == _msgSender(), \"Ownable: caller is not the owner\");\r\n        _;\r\n    }\r\n\r\n    /**\r\n     * @dev Leaves the contract without owner. It will not be possible to call\r\n     * `onlyOwner` functions anymore. Can only be called by the current owner.\r\n     *\r\n     * NOTE: Renouncing ownership will leave the contract without an owner,\r\n     * thereby removing any functionality that is only available to the owner.\r\n     */\r\n    function renounceOwnership() public virtual onlyOwner {\r\n        emit OwnershipTransferred(_owner, address(0));\r\n        _owner = address(0);\r\n    }\r\n\r\n    /**\r\n     * @dev Transfers ownership of the contract to a new account (`newOwner`).\r\n     * Can only be called by the current owner.\r\n     */\r\n    function transferOwnership(address newOwner) public virtual onlyOwner {\r\n        require(newOwner != address(0), \"Ownable: new owner is the zero address\");\r\n        emit OwnershipTransferred(_owner, newOwner);\r\n        _owner = newOwner;\r\n    }\r\n}\r\n\r\n\r\n\r\n// File: SlyFox.sol\r\n\r\ncontract AvaxFoxesGame is Ownable {\r\n\tusing SafeMath for uint256;\t\r\n\tuint256 public joinPVPprice = 0.5 ether;\r\n    uint256 public joinPVPTokenPrice = 1 ether;\t\r\n    address private _admin;\r\n    \r\n\tmapping(uint256 => int256) public Attack;\r\n    mapping(uint256 => int256) public Health;\r\n    mapping(uint256 => int256) public Critical;\r\n    mapping(uint256 => int256) public Hitrate;\r\n    mapping(uint256 => int256) public Evasion;\r\n\r\n\tmapping(uint256 => uint256) public lastBattle;\r\n\r\n    uint256 public teamSize = 2;\r\n    address[] public team1 = new address[](teamSize);\r\n    address[] public team2 = new address[](teamSize);\r\n    uint256[] public team1ids = new uint256[](teamSize);\r\n    uint256[] public team2ids = new uint256[](teamSize);\r\n\r\n    address[] public lastteam1 = new address[](teamSize);\r\n    address[] public lastteam2 = new address[](teamSize);\r\n    uint256[] public lastteam1ids = [9956,9957];\r\n    uint256[] public lastteam2ids = [9958,9959];\r\n    bool public lastwinner = false;\r\n\r\n    uint256[] public bestFoxes = new uint256[](3);\r\n    uint256 public temp = 100;\r\n\t//AvaxFox public  AvaxFoxesContract;\r\n    AvaxFoxes AvaxFoxesContract = AvaxFoxes(0x4aE16C4A15722554a51dD9FC5F8d0Bd83731C07c);\r\n\tAvaxFoxesToken AvaxFoxesTokenC = AvaxFoxesToken(0x94F660D45CA7Ee9537f55DafC4d3C5d306D6f7Ca);\r\n   \r\n    constructor() {\r\n        \r\n        _admin = msg.sender;        \r\n    }\r\n\t\r\n    function setTeamSize(uint256 size) external onlyOwner{\r\n\t\tteamSize = size;\r\n        team1 = new address[](teamSize);\r\n        team2 = new address[](teamSize);\r\n        team1ids = new uint256[](teamSize);\r\n        team2ids = new uint256[](teamSize);\r\n\t}\r\n    function setjoinPVPprice(uint256 price) external onlyOwner{\r\n\t\tjoinPVPprice = price;\r\n\t}\r\n    function setjoinPVPTokenPrice(uint256 price) external onlyOwner{\r\n\t\tjoinPVPTokenPrice = price;\r\n\t}\r\n    function getLevel(uint256 id) public view returns(int256){\r\n        return Attack[id]+Health[id]+Critical[id]+Hitrate[id]+Evasion[id];\r\n    }\r\n    \r\n    function increaseStats(uint256 id, uint256 attack, uint256 health, uint256 critical, uint256 hitrate, uint256 evasion) external {        \r\n        require(AvaxFoxesContract.ownerOf(id) == msg.sender, \"AvaxFoxes: You can only increase stats of your own Avax Fox\");\r\n        require(attack!=0 || health!=0 || critical!=0 || hitrate!=0 || evasion!=0, \"AvaxFoxes: All stats are given 0\");\r\n        int256 requiredToken = 0;\r\n        for(int256 i = 0; i<int256(attack); i++){\r\n            requiredToken += Attack[id]+i+1;\r\n        }\r\n        for(int256 i = 0; i<int256(health); i++){\r\n            requiredToken += Health[id]+i+1;\r\n        }\r\n        for(int256 i = 0; i<int256(critical); i++){\r\n            requiredToken += Critical[id]+i+1;\r\n        }\r\n        for(int256 i = 0; i<int256(hitrate); i++){\r\n            requiredToken += Hitrate[id]+i+1;\r\n        }\r\n        for(int256 i = 0; i<int256(evasion); i++){\r\n            requiredToken += Evasion[id]+i+1;\r\n        }\r\n        require(this.balanceOf(msg.sender) >= uint256(requiredToken)*1000000000000000000, \"AvaxFoxes: you dont have enough tokens\");\r\n        AvaxFoxesTokenC.burn(msg.sender, uint256(requiredToken)*1000000000000000000);\r\n        Attack[id]+=int256(attack);\r\n        Health[id]+=int256(health);\r\n        Critical[id]+=int256(critical);\r\n        Hitrate[id]+=int256(hitrate);\r\n        Evasion[id]+=int256(evasion);\r\n\r\n        if(getLevel(id)>getLevel(bestFoxes[0]))\r\n        {\r\n            bestFoxes[2] = bestFoxes[1];\r\n            bestFoxes[1] = bestFoxes[0];\r\n            bestFoxes[0] = id;\r\n        }else if(getLevel(id)>getLevel(bestFoxes[1])){\r\n            bestFoxes[2] = bestFoxes[1];\r\n            bestFoxes[1] = id;\r\n        }else if(getLevel(id)>getLevel(bestFoxes[2])){\r\n            bestFoxes[2] = id;\r\n        }\r\n    }\r\n\r\n\r\n    struct Team{\r\n        int256 totalAttack;\r\n        int256 totalHealth;        \r\n        int256 totalCritical;\r\n        int256 totalHitrate;        \r\n        int256 totalEvasion;\r\n    }   \r\n    \r\n    function PVPfight() private {\r\n        Team memory team_1 = Team(1,1,1,1,1);\r\n        Team memory team_2 = Team(1,1,1,1,1);        \r\n        uint256 nonce = 1; \r\n        \r\n        for(uint playerNo = 0; playerNo < teamSize; playerNo++){\r\n            team_1.totalAttack += Attack[team1ids[playerNo]];\r\n            team_1.totalHealth += Health[team1ids[playerNo]];\r\n            team_1.totalCritical += Critical[team1ids[playerNo]];\r\n            team_1.totalHitrate += Hitrate[team1ids[playerNo]];\r\n            team_1.totalEvasion += Evasion[team1ids[playerNo]];\r\n\r\n            team_2.totalAttack += Attack[team2ids[playerNo]];\r\n            team_2.totalHealth += Health[team2ids[playerNo]];\r\n            team_2.totalCritical += Critical[team2ids[playerNo]];\r\n            team_2.totalHitrate += Hitrate[team2ids[playerNo]];\r\n            team_2.totalEvasion += Evasion[team2ids[playerNo]];\r\n        }\r\n        team_1.totalAttack = team_1.totalAttack*100;\r\n        team_1.totalHealth = team_1.totalHealth*100;\r\n        team_2.totalAttack = team_2.totalAttack*100;\r\n        team_2.totalHealth = team_2.totalHealth*100;\r\n\r\n        int256 miss_chance = 20;\r\n        uint256 turn = 0;\r\n        uint256 rand=0;\r\n        int256 att = 0;\r\n        while(team_1.totalHealth>0 && team_2.totalHealth>0 && turn<10){\r\n            turn++;\r\n            if(int256(_getRandom(nonce++) % temp) > miss_chance-team_1.totalHitrate+team_2.totalEvasion){               \r\n                rand =  80+(_getRandom(nonce++) % 20);\r\n                att = team_1.totalAttack*int256(rand)/100;\r\n                if(int256(_getRandom(nonce++) % temp) < team_1.totalCritical){\r\n                    team_2.totalHealth -= int256(att)*2;\r\n                }else{    \r\n                    team_2.totalHealth -= int256(att);\r\n                }\r\n                \r\n            }\r\n            if(int256(_getRandom(nonce++) % temp) > miss_chance-team_2.totalHitrate+team_1.totalEvasion){\r\n                rand =  80+(_getRandom(nonce++) % 20);\r\n                att = team_2.totalAttack*int256(rand)/100;\r\n                if(int256(_getRandom(nonce++) % temp) < team_2.totalCritical){                    \r\n                    team_1.totalHealth -= int256(att)*2;\r\n                }else{                    \r\n                    team_1.totalHealth -= int256(att);\r\n                }\r\n            }           \r\n        }\r\n        \r\n        if(team_2.totalHealth<team_1.totalHealth){\r\n            for (uint i = 0; i < teamSize; i++){\r\n                payable(team1[i]).transfer(joinPVPprice.mul(18).div(10));\r\n                               \r\n            }\r\n            lastwinner = false; \r\n        }\r\n        else if(team_2.totalHealth>team_1.totalHealth){\r\n            for (uint i = 0; i < teamSize; i++){\r\n                payable(team2[i]).transfer(joinPVPprice.mul(18).div(10));\r\n                               \r\n            }\r\n            lastwinner = true; \r\n        }\r\n        else{\r\n            if(_getRandom(nonce++) % temp >49){\r\n               for (uint i = 0; i < teamSize; i++){\r\n                payable(team2[i]).transfer(joinPVPprice.mul(18).div(10));                \r\n                }\r\n                lastwinner = true;  \r\n            }else{\r\n                for (uint i = 0; i < teamSize; i++){\r\n                   payable(team1[i]).transfer(joinPVPprice.mul(18).div(10));                    \r\n                }\r\n                lastwinner = false; \r\n            }\r\n        }        \r\n        for (uint i = 0; i < teamSize; i++) {\r\n            lastteam1[i] = team1[i];\r\n            lastteam2[i] = team2[i];\r\n            lastteam1ids[i] = team1ids[i];\r\n            lastteam2ids[i] = team2ids[i];\r\n        }\r\n        team1 = new address[](teamSize);\r\n        team2 = new address[](teamSize);\r\n        team1ids = new uint256[](teamSize);\r\n        team2ids = new uint256[](teamSize);        \r\n    }\r\n    function canJoinPVP(address _user , uint256 id) public view returns(bool) {\r\n       bool state=true;\r\n       if(SafeMath.sub(block.timestamp, lastBattle[id])<86400){\r\n           state=false;\r\n       }\r\n       for (uint i = 0; i < teamSize; i++) {\r\n            if(team1[i]==_user || team2[i]==_user){\r\n                state=false;\r\n            }            \r\n        } \r\n\r\n       return state;\r\n\t}\r\n    function canJoinHunt(uint256 id) public view returns(bool) {\r\n       bool state=true;\r\n       if(SafeMath.sub(block.timestamp, lastBattle[id])<86400){\r\n           state=false;\r\n       }      \r\n\r\n       return state;\r\n\t}\r\n\r\n    function energy(uint256 id) public view returns(uint256) {       \r\n       return SafeMath.sub(block.timestamp, lastBattle[id]);\r\n\t}\r\n\r\n    function Hunt(uint256 id) external{        \r\n        require(AvaxFoxesContract.ownerOf(id) == msg.sender, \"AvaxFoxes: You can only join with your own Avax Fox\");        \r\n        require(canJoinHunt(id), \"Avax Foxes: You cant join hunt\");\r\n        lastBattle[id]=block.timestamp;\r\n        uint256 rand = _getRandom(1) % temp ;\r\n        if(rand>89){\r\n            AvaxFoxesTokenC.mint(msg.sender, 5000000000000000000);\r\n        }\r\n        else if(rand>9){\r\n            AvaxFoxesTokenC.mint(msg.sender, 1000000000000000000);\r\n        }\r\n\r\n    }\r\n\r\n    function HuntwithAll(address user) external{        \r\n        uint256[] memory ids = AvaxFoxesContract.walletOfOwner(user);       \r\n        uint256 totalReward = 0;\r\n        uint256 rand = 0;\r\n        uint256 nonce = 0;\r\n        for (uint i = 0; i < ids.length; i++){\r\n            if(canJoinHunt(ids[i])){\r\n                lastBattle[ids[i]] = block.timestamp;\r\n                rand = _getRandom(nonce++) % temp ;\r\n                if(rand>89){\r\n                    totalReward += 5;\r\n                }\r\n                else if(rand>9){\r\n                    totalReward += 1;\r\n                }\r\n            }            \r\n        }        \r\n        AvaxFoxesTokenC.mint(user, totalReward*1000000000000000000);\r\n    }\r\n\r\n    function joinPVP(uint256 id) external payable{\r\n        require(joinPVPprice == msg.value, \"AvaxFoxes: invalid ether value\");\r\n        require(this.balanceOf(msg.sender) > joinPVPTokenPrice, \"AvaxFoxes: you dont have enough tokens\");\r\n        require(AvaxFoxesContract.ownerOf(id) == msg.sender, \"AvaxFoxes: You can only join with your own Avax Fox\");        \r\n        require(canJoinPVP(msg.sender, id), \"Avax Foxes: You cant join pvp\");        \r\n        AvaxFoxesTokenC.burn(msg.sender, joinPVPTokenPrice);\r\n        lastBattle[id]=block.timestamp;\r\n\r\n        for (uint i = 0; i < teamSize; i++) {\r\n            if(team1[i]==address(0)){\r\n                team1[i]=msg.sender;\r\n                team1ids[i]=id;\r\n                break;\r\n            }\r\n            if(team2[i]==address(0)){\r\n                team2[i]=msg.sender;\r\n                team2ids[i]=id;\r\n                break;\r\n            }\r\n        }\r\n        if(team2[teamSize-1]!=address(0)){\r\n            PVPfight();\r\n        }\r\n        \r\n    }   \r\n\r\n\t\r\n    function getTotalClaimable(address _user) public view returns(uint256) {       \r\n       return AvaxFoxesTokenC.getTotalClaimable(_user);\r\n\t}\r\n    \r\n    function balanceOf(address _user) external view returns(uint256) {\r\n        return AvaxFoxesTokenC.balanceOf(_user);\r\n    }\r\n    \r\n\tfunction getReward(address _from) public {\r\n\t\tAvaxFoxesTokenC.getReward(_from);\r\n\t}\r\n\r\n\t        \r\n    function _getRandom(uint256 nonce) internal view returns (uint256) {        \r\n    return\r\n      uint256(\r\n        keccak256(\r\n          abi.encodePacked(nonce, block.timestamp, temp)\r\n        )\r\n      );\r\n    }\r\n    function withdraw() public payable onlyOwner {\r\n        require(payable(msg.sender).send(address(this).balance));\r\n    }\r\n\t\r\n}",
  "sourcePath": "C:\\Users\\Burhan\\Desktop\\avaxfoxes\\nft_minter\\contracts\\avaxfox.sol",
  "compiler": {
    "name": "solc",
    "version": "0.8.7+commit.e28d00a7.Emscripten.clang"
  },
  "schemaVersion": "3.4.3",
  "updatedAt": "2021-12-08T14:39:10.854Z",
  "devdoc": {
    "kind": "dev",
    "methods": {
      "owner()": {
        "details": "Returns the address of the current owner."
      },
      "renounceOwnership()": {
        "details": "Leaves the contract without owner. It will not be possible to call `onlyOwner` functions anymore. Can only be called by the current owner. NOTE: Renouncing ownership will leave the contract without an owner, thereby removing any functionality that is only available to the owner."
      },
      "transferOwnership(address)": {
        "details": "Transfers ownership of the contract to a new account (`newOwner`). Can only be called by the current owner."
      }
    },
    "version": 1
  },
  "userdoc": {
    "kind": "user",
    "methods": {},
    "version": 1
  }
}