{
  "contractName": "SlyFoxSale",
  "abi": [
    {
      "anonymous": false,
      "inputs": [
        {
          "indexed": true,
          "internalType": "address",
          "name": "previousOwner",
          "type": "address"
        },
        {
          "indexed": true,
          "internalType": "address",
          "name": "newOwner",
          "type": "address"
        }
      ],
      "name": "OwnershipTransferred",
      "type": "event"
    },
    {
      "inputs": [],
      "name": "avax_price",
      "outputs": [
        {
          "internalType": "uint256",
          "name": "",
          "type": "uint256"
        }
      ],
      "stateMutability": "view",
      "type": "function"
    },
    {
      "inputs": [],
      "name": "max_supply",
      "outputs": [
        {
          "internalType": "uint256",
          "name": "",
          "type": "uint256"
        }
      ],
      "stateMutability": "view",
      "type": "function"
    },
    {
      "inputs": [],
      "name": "owner",
      "outputs": [
        {
          "internalType": "address",
          "name": "",
          "type": "address"
        }
      ],
      "stateMutability": "view",
      "type": "function"
    },
    {
      "inputs": [],
      "name": "renounceOwnership",
      "outputs": [],
      "stateMutability": "nonpayable",
      "type": "function"
    },
    {
      "inputs": [],
      "name": "token_price",
      "outputs": [
        {
          "internalType": "uint256",
          "name": "",
          "type": "uint256"
        }
      ],
      "stateMutability": "view",
      "type": "function"
    },
    {
      "inputs": [],
      "name": "total_supply",
      "outputs": [
        {
          "internalType": "uint256",
          "name": "",
          "type": "uint256"
        }
      ],
      "stateMutability": "view",
      "type": "function"
    },
    {
      "inputs": [
        {
          "internalType": "address",
          "name": "newOwner",
          "type": "address"
        }
      ],
      "name": "transferOwnership",
      "outputs": [],
      "stateMutability": "nonpayable",
      "type": "function"
    },
    {
      "inputs": [
        {
          "internalType": "uint256",
          "name": "price",
          "type": "uint256"
        }
      ],
      "name": "set_avax_price",
      "outputs": [],
      "stateMutability": "nonpayable",
      "type": "function"
    },
    {
      "inputs": [
        {
          "internalType": "uint256",
          "name": "price",
          "type": "uint256"
        }
      ],
      "name": "set_token_price",
      "outputs": [],
      "stateMutability": "nonpayable",
      "type": "function"
    },
    {
      "inputs": [
        {
          "internalType": "uint256",
          "name": "_max_supply",
          "type": "uint256"
        }
      ],
      "name": "set_max_supply",
      "outputs": [],
      "stateMutability": "nonpayable",
      "type": "function"
    },
    {
      "inputs": [
        {
          "internalType": "uint256",
          "name": "amount",
          "type": "uint256"
        }
      ],
      "name": "buy",
      "outputs": [],
      "stateMutability": "payable",
      "type": "function"
    }
  ],
  "bytecode": "0x6080604052600180546001600160a01b03191673a92cdf589c8977f9cac394121f4bacfc47f9b64c17905567016345785d8a00006002556801158e460913d0000060035569043c33c1937564800000600455600060055534801561006257600080fd5b50600080546001600160a01b031916331781556105fe90819061008590396000f3fe60806040526004361061009c5760003560e01c80638a333b50116100645780638a333b501461012d5780638a938f2f146101435780638da5cb5b14610163578063d96a094a1461018b578063e7bc31f21461019e578063f2fde38b146101be57600080fd5b80633940e9ee146100a15780634a5e4695146100ca5780635b81aff2146100e0578063715018a6146101025780637b4fd96e14610117575b600080fd5b3480156100ad57600080fd5b506100b760055481565b6040519081526020015b60405180910390f35b3480156100d657600080fd5b506100b760025481565b3480156100ec57600080fd5b506101006100fb36600461052d565b6101de565b005b34801561010e57600080fd5b50610100610216565b34801561012357600080fd5b506100b760035481565b34801561013957600080fd5b506100b760045481565b34801561014f57600080fd5b5061010061015e36600461052d565b61028a565b34801561016f57600080fd5b506000546040516001600160a01b0390911681526020016100c1565b61010061019936600461052d565b6102b9565b3480156101aa57600080fd5b506101006101b936600461052d565b6103e4565b3480156101ca57600080fd5b506101006101d93660046104fd565b610413565b6000546001600160a01b031633146102115760405162461bcd60e51b815260040161020890610546565b60405180910390fd5b600355565b6000546001600160a01b031633146102405760405162461bcd60e51b815260040161020890610546565b600080546040516001600160a01b03909116907f8be0079c531659141344cd1fd0a4f28419497f9722a3daafe3b4186f6b6457e0908390a3600080546001600160a01b0319169055565b6000546001600160a01b031633146102b45760405162461bcd60e51b815260040161020890610546565b600455565b34600254826102c89190610593565b146103155760405162461bcd60e51b815260206004820152601e60248201527f41766178466f7865733a20696e76616c69642065746865722076616c756500006044820152606401610208565b6004546003546103259083610593565b600554610332919061057b565b1061033c57600080fd5b6003546103499082610593565b6005600082825461035a919061057b565b90915550506001546003546001600160a01b03909116906340c10f199033906103839085610593565b6040516001600160e01b031960e085901b1681526001600160a01b0390921660048301526024820152604401600060405180830381600087803b1580156103c957600080fd5b505af11580156103dd573d6000803e3d6000fd5b5050505050565b6000546001600160a01b0316331461040e5760405162461bcd60e51b815260040161020890610546565b600255565b6000546001600160a01b0316331461043d5760405162461bcd60e51b815260040161020890610546565b6001600160a01b0381166104a25760405162461bcd60e51b815260206004820152602660248201527f4f776e61626c653a206e6577206f776e657220697320746865207a65726f206160448201526564647265737360d01b6064820152608401610208565b600080546040516001600160a01b03808516939216917f8be0079c531659141344cd1fd0a4f28419497f9722a3daafe3b4186f6b6457e091a3600080546001600160a01b0319166001600160a01b0392909216919091179055565b60006020828403121561050f57600080fd5b81356001600160a01b038116811461052657600080fd5b9392505050565b60006020828403121561053f57600080fd5b5035919050565b6020808252818101527f4f776e61626c653a2063616c6c6572206973206e6f7420746865206f776e6572604082015260600190565b6000821982111561058e5761058e6105b2565b500190565b60008160001904831182151516156105ad576105ad6105b2565b500290565b634e487b7160e01b600052601160045260246000fdfea2646970667358221220299b67a4f9ad1954d1671c0cee0105d2865c24d1806fa09a523f868dbd0d3a7864736f6c63430008070033",
  "immutableReferences": {},
  "source": "\r\n// SPDX-License-Identifier: MIT\r\n\r\npragma solidity 0.8.7;\r\n\r\nabstract contract AvaxFoxesToken {\r\n    function getTotalClaimable(address _user) public view returns(uint256){}\r\n    function getReward(address _from) public {}\r\n    function burn(address _from, uint256 _amount) external {}\r\n\tfunction balanceOf(address _user) external view returns(uint256) {}\r\n    function mint(address _to, uint256 _amount) external {}    \r\n}\r\n\r\nabstract contract Context {\r\n    function _msgSender() internal view virtual returns (address) {\r\n        return msg.sender;\r\n    }\r\n\r\n    function _msgData() internal view virtual returns (bytes memory) {\r\n        this; // silence state mutability warning without generating bytecode - see https://github.com/ethereum/solidity/issues/2691\r\n        return msg.data;\r\n    }\r\n}\r\nabstract contract Ownable is Context {\r\n    address private _owner;\r\n\r\n    event OwnershipTransferred(address indexed previousOwner, address indexed newOwner);\r\n\r\n    /**\r\n     * @dev Initializes the contract setting the deployer as the initial owner.\r\n     */\r\n    constructor (){\r\n        address msgSender = _msgSender();\r\n        _owner = msgSender;\r\n        //emit OwnershipTransferred(address(0), msgSender);\r\n    }\r\n\r\n    /**\r\n     * @dev Returns the address of the current owner.\r\n     */\r\n    function owner() public view virtual returns (address) {\r\n        return _owner;\r\n    }\r\n\r\n    /**\r\n     * @dev Throws if called by any account other than the owner.\r\n     */\r\n    modifier onlyOwner() {\r\n        require(owner() == _msgSender(), \"Ownable: caller is not the owner\");\r\n        _;\r\n    }\r\n\r\n    /**\r\n     * @dev Leaves the contract without owner. It will not be possible to call\r\n     * `onlyOwner` functions anymore. Can only be called by the current owner.\r\n     *\r\n     * NOTE: Renouncing ownership will leave the contract without an owner,\r\n     * thereby removing any functionality that is only available to the owner.\r\n     */\r\n    function renounceOwnership() public virtual onlyOwner {\r\n        emit OwnershipTransferred(_owner, address(0));\r\n        _owner = address(0);\r\n    }\r\n\r\n    /**\r\n     * @dev Transfers ownership of the contract to a new account (`newOwner`).\r\n     * Can only be called by the current owner.\r\n     */\r\n    function transferOwnership(address newOwner) public virtual onlyOwner {\r\n        require(newOwner != address(0), \"Ownable: new owner is the zero address\");\r\n        emit OwnershipTransferred(_owner, newOwner);\r\n        _owner = newOwner;\r\n    }\r\n}\r\n\r\ncontract SlyFoxSale is Ownable {\r\nAvaxFoxesToken AvaxFoxesTokenC = AvaxFoxesToken(0xa92CDF589C8977f9caC394121F4bACFc47F9b64C);\r\nuint256 public avax_price = 0.1 ether;\r\nuint256 public token_price = 20 ether;\r\nuint256 public max_supply = 20000 ether;\r\nuint256 public total_supply = 0;\t\r\n\r\nfunction set_avax_price(uint256 price) external onlyOwner{\r\n\tavax_price = price;\r\n}\r\nfunction set_token_price(uint256 price) external onlyOwner{\r\n\ttoken_price = price;\r\n}\r\nfunction set_max_supply(uint256 _max_supply) external onlyOwner{\r\n\tmax_supply = _max_supply;\r\n}\r\n\r\nfunction buy(uint256 amount) external payable{\r\n    require(amount*avax_price == msg.value, \"AvaxFoxes: invalid ether value\");\r\n    require(total_supply+amount*token_price<max_supply);\r\n    total_supply+=amount*token_price;\r\n    AvaxFoxesTokenC.mint(msg.sender, amount*token_price);\r\n}\r\n\r\n\r\n}",
  "sourcePath": "C:\\Users\\Burhan\\Desktop\\avaxfoxes\\nft_minter\\contracts\\avaxfox.sol",
  "compiler": {
    "name": "solc",
    "version": "0.8.7+commit.e28d00a7.Emscripten.clang"
  },
  "schemaVersion": "3.4.3",
  "updatedAt": "2021-12-13T17:54:54.910Z",
  "devdoc": {
    "kind": "dev",
    "methods": {
      "owner()": {
        "details": "Returns the address of the current owner."
      },
      "renounceOwnership()": {
        "details": "Leaves the contract without owner. It will not be possible to call `onlyOwner` functions anymore. Can only be called by the current owner. NOTE: Renouncing ownership will leave the contract without an owner, thereby removing any functionality that is only available to the owner."
      },
      "transferOwnership(address)": {
        "details": "Transfers ownership of the contract to a new account (`newOwner`). Can only be called by the current owner."
      }
    },
    "version": 1
  },
  "userdoc": {
    "kind": "user",
    "methods": {},
    "version": 1
  }
}